{
  "contractName": "DappToken",
  "abi": [
    {
      "constant": true,
      "inputs": [],
      "name": "totalSupply",
      "outputs": [
        {
          "name": "",
          "type": "uint256"
        }
      ],
      "payable": false,
      "stateMutability": "view",
      "type": "function"
    },
    {
      "inputs": [],
      "payable": false,
      "stateMutability": "nonpayable",
      "type": "constructor"
    }
  ],
  "bytecode": "0x60606040523415600e57600080fd5b62989680600081905550609c806100266000396000f300606060405260043610603f576000357c0100000000000000000000000000000000000000000000000000000000900463ffffffff16806318160ddd146044575b600080fd5b3415604e57600080fd5b6054606a565b6040518082815260200191505060405180910390f35b600054815600a165627a7a7230582004960856ff06a2c1287c723e155baeda711442fcfbcb2d9c892505bf2da960020029",
  "source": "pragma solidity ^0.4.2;\n\ncontract DappToken {\n    //Constructor\n    //Set the total number of tokens\n    uint256 public totalSupply;\n    \n    //Read the total number of tokens\n    function DappToken() public{\n        totalSupply = 10000000;\n    }\n}",
  "sourcePath": "/home/raghwendra/token_sale/contracts/DappToken.sol",
  "compiler": {
    "name": "solc",
    "version": "0.4.21+commit.dfe3193c.Emscripten.clang"
  },
  "schemaVersion": "2.0.0",
  "updatedAt": "2018-04-20T10:00:59.639Z"
}